{
  "contractName": "Donations",
  "abi": [
    {
      "inputs": [],
      "stateMutability": "nonpayable",
      "type": "constructor"
    },
    {
      "inputs": [],
      "name": "owner",
      "outputs": [
        {
          "internalType": "address",
          "name": "",
          "type": "address"
        }
      ],
      "stateMutability": "view",
      "type": "function"
    },
    {
      "inputs": [],
      "name": "donate",
      "outputs": [],
      "stateMutability": "payable",
      "type": "function"
    },
    {
      "inputs": [],
      "name": "withdraw",
      "outputs": [],
      "stateMutability": "payable",
      "type": "function"
    }
  ],
  "bytecode": "0x608060405234801561000f575f80fd5b50335f806101000a81548173ffffffffffffffffffffffffffffffffffffffff021916908373ffffffffffffffffffffffffffffffffffffffff1602179055506105008061005c5f395ff3fe608060405260043610610033575f3560e01c80633ccfd60b146100375780638da5cb5b14610041578063ed88c68e1461006b575b5f80fd5b61003f610075565b005b34801561004c575f80fd5b506100556101f4565b604051610062919061029a565b60405180910390f35b610073610217565b005b5f8054906101000a900473ffffffffffffffffffffffffffffffffffffffff1673ffffffffffffffffffffffffffffffffffffffff163373ffffffffffffffffffffffffffffffffffffffff1614610102576040517f08c379a00000000000000000000000000000000000000000000000000000000081526004016100f99061030d565b60405180910390fd5b5f4790505f8111610148576040517f08c379a000000000000000000000000000000000000000000000000000000000815260040161013f90610375565b60405180910390fd5b5f3373ffffffffffffffffffffffffffffffffffffffff168260405161016d906103c0565b5f6040518083038185875af1925050503d805f81146101a7576040519150601f19603f3d011682016040523d82523d5f602084013e6101ac565b606091505b50509050806101f0576040517f08c379a00000000000000000000000000000000000000000000000000000000081526004016101e79061041e565b60405180910390fd5b5050565b5f8054906101000a900473ffffffffffffffffffffffffffffffffffffffff1681565b5f3411610259576040517f08c379a0000000000000000000000000000000000000000000000000000000008152600401610250906104ac565b60405180910390fd5b565b5f73ffffffffffffffffffffffffffffffffffffffff82169050919050565b5f6102848261025b565b9050919050565b6102948161027a565b82525050565b5f6020820190506102ad5f83018461028b565b92915050565b5f82825260208201905092915050565b7f4f6e6c7920746865206f776e65722063616e20776974686472617721000000005f82015250565b5f6102f7601c836102b3565b9150610302826102c3565b602082019050919050565b5f6020820190508181035f830152610324816102eb565b9050919050565b7f4e6f206574686572206c65667420746f207769746864726177000000000000005f82015250565b5f61035f6019836102b3565b915061036a8261032b565b602082019050919050565b5f6020820190508181035f83015261038c81610353565b9050919050565b5f81905092915050565b50565b5f6103ab5f83610393565b91506103b68261039d565b5f82019050919050565b5f6103ca826103a0565b9150819050919050565b7f5472616e73666572206661696c65642e000000000000000000000000000000005f82015250565b5f6104086010836102b3565b9150610413826103d4565b602082019050919050565b5f6020820190508181035f830152610435816103fc565b9050919050565b7f446f6e6174696f6e206e6565647320746f206265206120706f736974697665205f8201527f76616c7565000000000000000000000000000000000000000000000000000000602082015250565b5f6104966025836102b3565b91506104a18261043c565b604082019050919050565b5f6020820190508181035f8301526104c38161048a565b905091905056fea26469706673582212205707f6bfd6de69317f096c61cae8929014d3f7629a41ca94e649a5129fd4951264736f6c63430008150033",
  "immutableReferences": {},
  "source": "// SPDX-License-Identifier: MIT\r\npragma solidity ^0.8.0;\r\n\r\ncontract Donations {\r\n  address public owner;\r\n\r\n  constructor() {\r\n    owner = msg.sender;\r\n  }\r\n\r\n  // Function to donate\r\n  function donate() public payable {\r\n    require(msg.value > 0, \"Donation needs to be a positive value\");\r\n  }\r\n\r\n  // Withdraw ether\r\n  function withdraw() public payable {\r\n    require(msg.sender == owner, \"Only the owner can withdraw!\");\r\n\r\n    uint balance = address(this).balance;\r\n    require(balance > 0, \"No ether left to withdraw\");\r\n\r\n    (bool success, ) = (msg.sender).call{value: balance}(\"\");\r\n    require(success, \"Transfer failed.\");\r\n  }\r\n}",
  "sourcePath": "E:\\ARQUIVOS_2024\\PROGRAMAO\\BLOCKCHAIN\\votacaoeletronica\\contracts\\Voting.sol",
  "compiler": {
    "name": "solc",
    "version": "0.8.21+commit.d9974bed.Emscripten.clang"
  },
  "schemaVersion": "3.4.16",
  "updatedAt": "2024-05-03T02:02:45.262Z",
  "devdoc": {
    "kind": "dev",
    "methods": {},
    "version": 1
  },
  "userdoc": {
    "kind": "user",
    "methods": {},
    "version": 1
  }
}