{
  "contractName": "Voting",
  "abi": [
    {
      "inputs": [],
      "stateMutability": "nonpayable",
      "type": "constructor"
    },
    {
      "anonymous": false,
      "inputs": [
        {
          "indexed": true,
          "internalType": "uint256",
          "name": "candidateId",
          "type": "uint256"
        },
        {
          "indexed": false,
          "internalType": "string",
          "name": "name",
          "type": "string"
        }
      ],
      "name": "CandidateRegistered",
      "type": "event"
    },
    {
      "anonymous": false,
      "inputs": [
        {
          "indexed": true,
          "internalType": "address",
          "name": "voter",
          "type": "address"
        },
        {
          "indexed": false,
          "internalType": "uint256",
          "name": "candidateId",
          "type": "uint256"
        },
        {
          "indexed": false,
          "internalType": "string",
          "name": "candidateName",
          "type": "string"
        }
      ],
      "name": "VoteCast",
      "type": "event"
    },
    {
      "inputs": [],
      "name": "admin",
      "outputs": [
        {
          "internalType": "address",
          "name": "",
          "type": "address"
        }
      ],
      "stateMutability": "view",
      "type": "function"
    },
    {
      "inputs": [
        {
          "internalType": "uint256",
          "name": "",
          "type": "uint256"
        }
      ],
      "name": "candidates",
      "outputs": [
        {
          "internalType": "uint256",
          "name": "id",
          "type": "uint256"
        },
        {
          "internalType": "string",
          "name": "name",
          "type": "string"
        },
        {
          "internalType": "uint256",
          "name": "voteCount",
          "type": "uint256"
        }
      ],
      "stateMutability": "view",
      "type": "function"
    },
    {
      "inputs": [],
      "name": "candidatesCount",
      "outputs": [
        {
          "internalType": "uint256",
          "name": "",
          "type": "uint256"
        }
      ],
      "stateMutability": "view",
      "type": "function"
    },
    {
      "inputs": [],
      "name": "totalVotes",
      "outputs": [
        {
          "internalType": "uint256",
          "name": "",
          "type": "uint256"
        }
      ],
      "stateMutability": "view",
      "type": "function"
    },
    {
      "inputs": [
        {
          "internalType": "address",
          "name": "",
          "type": "address"
        }
      ],
      "name": "voters",
      "outputs": [
        {
          "internalType": "bool",
          "name": "hasVoted",
          "type": "bool"
        },
        {
          "internalType": "uint256",
          "name": "votedCandidateId",
          "type": "uint256"
        }
      ],
      "stateMutability": "view",
      "type": "function"
    },
    {
      "inputs": [
        {
          "internalType": "string",
          "name": "_name",
          "type": "string"
        }
      ],
      "name": "registerCandidate",
      "outputs": [],
      "stateMutability": "nonpayable",
      "type": "function"
    },
    {
      "inputs": [
        {
          "internalType": "uint256",
          "name": "_candidateId",
          "type": "uint256"
        }
      ],
      "name": "getCandidateInfo",
      "outputs": [
        {
          "internalType": "uint256",
          "name": "",
          "type": "uint256"
        },
        {
          "internalType": "string",
          "name": "",
          "type": "string"
        },
        {
          "internalType": "uint256",
          "name": "",
          "type": "uint256"
        }
      ],
      "stateMutability": "view",
      "type": "function"
    },
    {
      "inputs": [],
      "name": "getTotalVotes",
      "outputs": [
        {
          "internalType": "uint256",
          "name": "",
          "type": "uint256"
        }
      ],
      "stateMutability": "view",
      "type": "function"
    }
  ],
  "bytecode": "0x608060405234801561000f575f80fd5b50335f806101000a81548173ffffffffffffffffffffffffffffffffffffffff021916908373ffffffffffffffffffffffffffffffffffffffff160217905550610cb68061005c5f395ff3fe608060405234801561000f575f80fd5b5060043610610086575f3560e01c80639a0e7d66116100595780639a0e7d661461012a5780639eb88db614610148578063a3ec138d14610164578063f851a4401461019557610086565b80630d15fd771461008a5780632d35a8a2146100a85780633477ee2e146100c657806370f67cfe146100f8575b5f80fd5b6100926101b3565b60405161009f91906104ef565b60405180910390f35b6100b06101b9565b6040516100bd91906104ef565b60405180910390f35b6100e060048036038101906100db9190610543565b6101bf565b6040516100ef939291906105f8565b60405180910390f35b610112600480360381019061010d9190610543565b61026b565b604051610121939291906105f8565b60405180910390f35b610132610343565b60405161013f91906104ef565b60405180910390f35b610162600480360381019061015d9190610760565b61034c565b005b61017e60048036038101906101799190610801565b610488565b60405161018c929190610846565b60405180910390f35b61019d6104b4565b6040516101aa919061087c565b60405180910390f35b60045481565b60035481565b6002602052805f5260405f205f91509050805f0154908060010180546101e4906108c2565b80601f0160208091040260200160405190810160405280929190818152602001828054610210906108c2565b801561025b5780601f106102325761010080835404028352916020019161025b565b820191905f5260205f20905b81548152906001019060200180831161023e57829003601f168201915b5050505050908060020154905083565b5f60605f60025f8581526020019081526020015f205f015460025f8681526020019081526020015f2060010160025f8781526020019081526020015f20600201548180546102b8906108c2565b80601f01602080910402602001604051908101604052809291908181526020018280546102e4906108c2565b801561032f5780601f106103065761010080835404028352916020019161032f565b820191905f5260205f20905b81548152906001019060200180831161031257829003601f168201915b505050505091509250925092509193909250565b5f600454905090565b5f8054906101000a900473ffffffffffffffffffffffffffffffffffffffff1673ffffffffffffffffffffffffffffffffffffffff163373ffffffffffffffffffffffffffffffffffffffff16146103d9576040517f08c379a00000000000000000000000000000000000000000000000000000000081526004016103d090610962565b60405180910390fd5b60035f8154809291906103eb906109ad565b9190505550604051806060016040528060035481526020018281526020015f81525060025f60035481526020019081526020015f205f820151815f0155602082015181600101908161043d9190610b91565b50604082015181600201559050506003547f96b6e1d9af8279de0ae4d01600bcae708bdb292c4a8f8f150aff92f5caf56a428260405161047d9190610c60565b60405180910390a250565b6001602052805f5260405f205f91509050805f015f9054906101000a900460ff16908060010154905082565b5f8054906101000a900473ffffffffffffffffffffffffffffffffffffffff1681565b5f819050919050565b6104e9816104d7565b82525050565b5f6020820190506105025f8301846104e0565b92915050565b5f604051905090565b5f80fd5b5f80fd5b610522816104d7565b811461052c575f80fd5b50565b5f8135905061053d81610519565b92915050565b5f6020828403121561055857610557610511565b5b5f6105658482850161052f565b91505092915050565b5f81519050919050565b5f82825260208201905092915050565b5f5b838110156105a557808201518184015260208101905061058a565b5f8484015250505050565b5f601f19601f8301169050919050565b5f6105ca8261056e565b6105d48185610578565b93506105e4818560208601610588565b6105ed816105b0565b840191505092915050565b5f60608201905061060b5f8301866104e0565b818103602083015261061d81856105c0565b905061062c60408301846104e0565b949350505050565b5f80fd5b5f80fd5b7f4e487b71000000000000000000000000000000000000000000000000000000005f52604160045260245ffd5b610672826105b0565b810181811067ffffffffffffffff821117156106915761069061063c565b5b80604052505050565b5f6106a3610508565b90506106af8282610669565b919050565b5f67ffffffffffffffff8211156106ce576106cd61063c565b5b6106d7826105b0565b9050602081019050919050565b828183375f83830152505050565b5f6107046106ff846106b4565b61069a565b9050828152602081018484840111156107205761071f610638565b5b61072b8482856106e4565b509392505050565b5f82601f83011261074757610746610634565b5b81356107578482602086016106f2565b91505092915050565b5f6020828403121561077557610774610511565b5b5f82013567ffffffffffffffff81111561079257610791610515565b5b61079e84828501610733565b91505092915050565b5f73ffffffffffffffffffffffffffffffffffffffff82169050919050565b5f6107d0826107a7565b9050919050565b6107e0816107c6565b81146107ea575f80fd5b50565b5f813590506107fb816107d7565b92915050565b5f6020828403121561081657610815610511565b5b5f610823848285016107ed565b91505092915050565b5f8115159050919050565b6108408161082c565b82525050565b5f6040820190506108595f830185610837565b61086660208301846104e0565b9392505050565b610876816107c6565b82525050565b5f60208201905061088f5f83018461086d565b92915050565b7f4e487b71000000000000000000000000000000000000000000000000000000005f52602260045260245ffd5b5f60028204905060018216806108d957607f821691505b6020821081036108ec576108eb610895565b5b50919050565b7f4f6e6c792061646d696e2063616e20706572666f726d2074686973206f7065725f8201527f6174696f6e2e0000000000000000000000000000000000000000000000000000602082015250565b5f61094c602683610578565b9150610957826108f2565b604082019050919050565b5f6020820190508181035f83015261097981610940565b9050919050565b7f4e487b71000000000000000000000000000000000000000000000000000000005f52601160045260245ffd5b5f6109b7826104d7565b91507fffffffffffffffffffffffffffffffffffffffffffffffffffffffffffffffff82036109e9576109e8610980565b5b600182019050919050565b5f819050815f5260205f209050919050565b5f6020601f8301049050919050565b5f82821b905092915050565b5f60088302610a507fffffffffffffffffffffffffffffffffffffffffffffffffffffffffffffffff82610a15565b610a5a8683610a15565b95508019841693508086168417925050509392505050565b5f819050919050565b5f610a95610a90610a8b846104d7565b610a72565b6104d7565b9050919050565b5f819050919050565b610aae83610a7b565b610ac2610aba82610a9c565b848454610a21565b825550505050565b5f90565b610ad6610aca565b610ae1818484610aa5565b505050565b5b81811015610b0457610af95f82610ace565b600181019050610ae7565b5050565b601f821115610b4957610b1a816109f4565b610b2384610a06565b81016020851015610b32578190505b610b46610b3e85610a06565b830182610ae6565b50505b505050565b5f82821c905092915050565b5f610b695f1984600802610b4e565b1980831691505092915050565b5f610b818383610b5a565b9150826002028217905092915050565b610b9a8261056e565b67ffffffffffffffff811115610bb357610bb261063c565b5b610bbd82546108c2565b610bc8828285610b08565b5f60209050601f831160018114610bf9575f8415610be7578287015190505b610bf18582610b76565b865550610c58565b601f198416610c07866109f4565b5f5b82811015610c2e57848901518255600182019150602085019450602081019050610c09565b86831015610c4b5784890151610c47601f891682610b5a565b8355505b6001600288020188555050505b505050505050565b5f6020820190508181035f830152610c7881846105c0565b90509291505056fea2646970667358221220164e97ce9a01f3537001ce732a051a399ba8fcbb6479219ed209c96d2255c95764736f6c63430008150033",
  "immutableReferences": {},
  "source": "// SPDX-License-Identifier: MIT\r\npragma solidity ^0.8.0;\r\n\r\ncontract Voting {\r\n    struct Candidate {\r\n        uint id;\r\n        string name;\r\n        uint voteCount;\r\n    }\r\n\r\n    struct Voter {\r\n        bool hasVoted;\r\n        uint votedCandidateId;\r\n    }\r\n\r\n    address public admin;\r\n    mapping(address => Voter) public voters;\r\n    mapping(uint => Candidate) public candidates;\r\n    uint public candidatesCount;\r\n    uint public totalVotes;\r\n\r\n    event CandidateRegistered(uint indexed candidateId, string name);\r\n    event VoteCast(address indexed voter, uint candidateId, string candidateName);\r\n \r\n\r\n \r\n    modifier onlyAdmin() {\r\n        require(msg.sender == admin, \"Only admin can perform this operation.\");\r\n        _;\r\n    }\r\n\r\n    constructor() {\r\n        admin = msg.sender;\r\n    }\r\n\r\n    function registerCandidate(string memory _name) public onlyAdmin {\r\n        candidatesCount++;\r\n        candidates[candidatesCount] = Candidate(candidatesCount, _name, 0);\r\n        emit CandidateRegistered(candidatesCount, _name);\r\n    }\r\n\r\n\r\n\r\n\r\n    function getCandidateInfo(uint _candidateId) public view returns (uint, string memory, uint) {\r\n        return (candidates[_candidateId].id, candidates[_candidateId].name, candidates[_candidateId].voteCount);\r\n    }\r\n\r\n    function getTotalVotes() public view returns (uint) {\r\n        return totalVotes;\r\n    }\r\n}\r\n",
  "sourcePath": "E:\\ARQUIVOS_2024\\PROGRAMAO\\BLOCKCHAIN\\votacaoeletronica\\contracts\\Voting.sol",
  "compiler": {
    "name": "solc",
    "version": "0.8.21+commit.d9974bed.Emscripten.clang"
  },
  "schemaVersion": "3.4.16",
  "updatedAt": "2024-05-03T11:59:13.345Z",
  "devdoc": {
    "kind": "dev",
    "methods": {},
    "version": 1
  },
  "userdoc": {
    "kind": "user",
    "methods": {},
    "version": 1
  }
}